:020000040800F2
:1000000000040020B9020008BB020008BB0200087F
:10001000BB020008BB020008BB020008BB020008CC
:10002000BB020008BB020008BB020008C1020008B6
:10003000BB020008BB020008DF020008BB02000888
:10004000BB020008BB020008BB020008BB0200089C
:10005000BB020008BB020008211D0008A11D00080A
:10006000211E0008A11E0008211F00080130000801
:10007000213000084130000861300008813000085C
:10008000A1300008C1300008BB020008BB02000814
:10009000BB020008BB020008BB020008A11F000849
:1000A000BB020008BB020008BB020008BB0200083C
:1000B000E123000811240008BB020008BB0200086D
:1000C000BB020008BB020008BB020008BB0200081C
:1000D000BB020008BB02000841230008BB02000865
:1000E000F1200008BB020008BB020008BB020008A8
:1000F000BB020008BB020008BB020008BB020008EC
:10010000BB020008BB020008BB020008BB020008DB
:10011000BB020008BB02000861240008BB02000803
:100120000131000821310008413100086131000827
:1001300081310008BB020008BB020008BB020008B6
:10014000BB020008BB020008BB020008BB0200089B
:10015000BB020008BB020008BB020008BB0200088B
:10016000BB020008BB020008BB020008BB0200087B
:10017000BB020008BB020008BB020008BB0200086B
:10018000BB020008BB020008BB020008BB0200085B
:10019000BB020008BB020008BB020008BB0200084B
:1001A000BB020008BB020008BB020008A123000834
:1001B000BB020008BB020008BB020008BB0200082B
:1001C000E1300008A1310008C1310008E131000828
:1001D000BB020008BB020008BB020008BB0200080B
:1001E00072B6264880F30888254880F30988254898
:1001F00025490860022080F31488BFF36F8F00F058
:10020000AFFA04F005FC4FF0553020491B4A9142EB
:100210003CBF41F8040BFAE71D49194A91423CBF23
:1002200041F8040BFAE71B491B4A1C4B9A423EBF9C
:1002300051F8040B42F8040BF8E700201849194A5A
:1002400091423CBF41F8040BFAE700F0A1FA00F03C
:100250008FFA154C154DAC4203DA54F8041B88474D
:10026000F9E709F06DFC124C124DAC4203DA54F878
:10027000041B8847F9E700F083BA0000000400205F
:10028000000800200000000808ED00E00000002049
:100290000004002064B50008000800203810002089
:1002A00038100020C4150020E0010008E00100081B
:1002B000E0010008E001000892E700F000F8FEE726
:1002C000EFF309820C31EFF31183A1E8FC4F0C30FE
:1002D000B0E8FC4F82F3098883F311887047EFF38D
:1002E000118308B506F094FA002808BF08BDBDE8E0
:1002F00008400C31EFF30982A1E8FC4F0C30B0E864
:10030000FC4F82F3098883F311887047002383F33D
:1003100011882846A047002005F032FCFEE70000C7
:10032000844641EA000313F003036DD1403A41D300
:1003300051F8043B40F8043B51F8043B40F8043BBF
:1003400051F8043B40F8043B51F8043B40F8043BAF
:1003500051F8043B40F8043B51F8043B40F8043B9F
:1003600051F8043B40F8043B51F8043B40F8043B8F
:1003700051F8043B40F8043B51F8043B40F8043B7F
:1003800051F8043B40F8043B51F8043B40F8043B6F
:1003900051F8043B40F8043B51F8043B40F8043B5F
:1003A00051F8043B40F8043B51F8043B40F8043B4F
:1003B000403ABDD2303211D351F8043B40F8043BEF
:1003C00051F8043B40F8043B51F8043B40F8043B2F
:1003D00051F8043B40F8043B103AEDD20C3205D3FF
:1003E00051F8043B40F8043B043AF9D2043208D0F7
:1003F000D2071CBF11F8013B00F8013B01D30B8869
:1004000003806046704700BF082A13D38B078DD046
:1004100010F003038AD0C3F10403D21ADB071CBF18
:1004200011F8013B00F8013B80D331F8023B20F882
:10043000023B7BE7043AD9D3013A11F8013B00F8BB
:10044000013BF9D20B7803704B7843708B78837043
:100450006046704753B94AB9002908BF00281CBF3D
:100460004FF0FF314FF0FF3000F074B9ADF1080CE0
:100470006DE904CE00F006F8DDF804E0DDE90223C2
:1004800004B070472DE9F047089E0D4604468846A3
:10049000002B4DD18A42944668D9B2FA82F252B109
:1004A00001FA02F3C2F1200120FA01F10CFA02FC78
:1004B00041EA030894404FEA1C45210CB8FBF5FEC5
:1004C0001FFA8CF705FB1E8341EA03430EFB07F17D
:1004D00099420BD91CEB03030EF1FF3080F01E8113
:1004E000994240F21B81AEF1020E63445B1AA4B242
:1004F000B3FBF5F005FB103344EA034400FB07F7B8
:10050000A7420AD91CEB040400F1FF3380F00881F4
:10051000A74240F2058164440238E41B40EA0E40E1
:1005200000211EB1D4400023C6E90043BDE8F08796
:100530008B4208D9002E00F0EE800021C6E90005AC
:100540000846BDE8F087B3FA83F100294AD1AB42EF
:1005500002D3824200F2F980841A65EB0303012082
:100560009846002EE2D0C6E90048DFE702B9FFDE78
:10057000B2FA82F2002A40F09180A1EB0C054FEA1A
:100580001C471FFA8CFE0121B5FBF7F307FB135044
:10059000250C45EA00450EFB03F0A84208D91CEBE8
:1005A000050503F1FF3802D2A84200F2CB80434692
:1005B0002D1AA4B2B5FBF7F007FB105544EA054429
:1005C0000EFB00FEA64508D91CEB040400F1FF3524
:1005D00002D2A64500F2BB802846A4EB0E0440EAF6
:1005E00003409EE7C1F120078B4022FA07FC4CEA4A
:1005F000030C20FA07F405FA01F31C43FD404FEA0F
:100600001C4900FA01F3B5FBF9F8200C1FFA8CFE27
:1006100009FB185540EA054508FB0EF0A84202FA0E
:1006200001F20BD91CEB050508F1FF3A80F0888038
:10063000A84240F28580A8F1020865442D1AA4B2B0
:10064000B5FBF9F009FB105544EA054500FB0EFE29
:10065000AE4508D91CEB050500F1FF346CD2AE4560
:100660006AD90238654440EA0840A0FB0294A5EB31
:100670000E05A542C846A64656D353D05EB1B3EB8D
:10068000080265EB0E0505FA07F722FA01F3CD40E3
:100690001F43C6E900750021BDE8F087C2F12003C1
:1006A00020FA03F10CFA02FC25FA03F395400D43FE
:1006B0004FEA1C471FFA8CFEB3FBF7F107FB113022
:1006C0002B0C43EA004301FB0EF0984204FA02F4BB
:1006D00008D91CEB030301F1FF382FD298422DD922
:1006E000023963441B1AADB2B3FBF7F007FB1033BA
:1006F00045EA034500FB0EF3AB4208D91CEB0505A8
:1007000000F1FF3816D2AB4214D902386544ED1A15
:1007100040EA014138E73146304607E78646E5E6DC
:100720001846FAE64B45A9D2B9EB020864EB0C0E69
:100730000138A3E74046EAE7204694E74146D1E77F
:10074000D0467BE7023B654432E7084609E764444C
:10075000023842E7704700BF0000000000000000C0
:1007600000BF704700000000000000000000000013
:1007700000BF704700000000000000000000000003
:10078000FEE700BF000000000000000000000000C5
:1007900084B0174B0393039B1B680293039B5B6816
:1007A000019309E0029B1A68019B1A60019B0433C4
:1007B0000193029B04330293039B9B68019A9A4224
:1007C000F0D305E0019B00221A60019B04330193E2
:1007D000039BDB68019A9A42F4D3039B1033039383
:1007E000039B044A9342D6D300BF00BF04B07047B6
:1007F0001C9E00089C9E00080000000000000000F5
:1008000000BF704700000000000000000000000072
:1008100008B5FFF7F5FF02F09BF802F0E9FE00F0E3
:10082000E7FB00F0ADFC00F013FE00F0E9FF01F083
:10083000EFF804F0F5F800F03BF800BF08BD00BF8A
:100840004FF080435B6A1846704700BF000000000D
:1008500082B001904FF08042019B53634FF0804380
:1008600000221A614FF080430222DA6000BF02B01A
:10087000704700BF00000000000000000000000002
:100880004FF080430022DA6000BF70470000000094
:1008900082B001904FF08042019B536300BF02B0D1
:1008A000704700BF000000000000000000000000D2
:1008B00008B503F035FB00BF08BD00BF0000000015
:1008C00008B5FFF7BDFF0346184608BD000000004D
:1008D00000B583B001900198FFF7BAFF00BF03B0E5
:1008E0005DF804FB000000000000000000000000B4
:1008F00008B5FFF7C5FF00BF08BD00BF000000003E
:1009000000B583B001900198FFF7C2FF00BF03B0AC
:100910005DF804FB00000000000000000000000083
:1009200082B00190019B019A1A60019B019A5A6062
:1009300000BF02B0704700BF0000000000000000D0
:1009400082B030230193019B83F3118800BF00BF65
:1009500000BF02B0704700BF0000000000000000B0
:1009600082B000230193019B83F3118800BF00BF75
:1009700000BF02B0704700BF000000000000000090
:1009800000B583B00190019B1846FFF7C9FF00BF77
:1009900003B05DF804FB00BF000000000000000091
:1009A00008B5FFF7CDFF00BF08BD00BF0000000085
:1009B00008B5FFF7D5FF00BF08BD00BF000000006D
:1009C00000B583B001900198FFF7DAFF00BF03B0D4
:1009D0005DF804FB000000000000000000000000C3
:1009E00000B583B0019000910099019805F090F94D
:1009F0000346184603B05DF804FB00BF000000008A
:100A000000B583B0019000910099019805F0A0F91C
:100A100000BF03B05DF804FB000000000000000010
:100A200000B587B0039002910192039B9B68019AE5
:100A30009A4202D9039B9B680193039B1A69039B0B
:100A40009B69D31A0593019A059B9A420DD2039B89
:100A50009B69019A19460298FFF762FC039B9A6909
:100A6000019B1A44039B9A612BE0019A059B9A42D1
:100A70001CD9039B9B69059A19460298FFF750FC05
:100A8000029A059B13440293019A059BD31A04937F
:100A9000039BDB68049A19460298FFF741FC039B0D
:100AA000DA68049B1A44039B9A610AE0039B9B69E2
:100AB000019A19460298FFF733FC039BDA68039BFF
:100AC0009A61039B9A68019BD21A039B9A60019BCF
:100AD000184607B05DF804FB0000000000000000AD
:100AE00000B587B0039002910192039B9B68019A25
:100AF0009A4202D9039B9B680193039B1A69039B4B
:100B00005B69D31A0593019A059B9A420DD2039B08
:100B10005B69019A02991846FFF702FC039B5A6928
:100B2000019B1A44039B5A612BE0019A059B9A4250
:100B30001CD9039B5B69059A02991846FFF7F0FBE5
:100B4000029A059B13440293019A059BD31A0493BE
:100B5000039BDB68049A02991846FFF7E1FB039BAD
:100B6000DA68049B1A44039B5A610AE0039B5B69A1
:100B7000019A02991846FFF7D3FB039BDA68039B9F
:100B80005A61039B9A68019BD21A039B9A60019B4E
:100B9000184607B05DF804FB0000000000000000EC
:100BA00000B585B00390029101920093039B184613
:100BB000FFF706FF039B00229A60039B029ADA600C
:100BC000039B029A9A61039B029A5A61029A019BC3
:100BD0001A44039B1A61039B009ADA61039B069AED
:100BE0001A6200BF05B05DF804FB00BF0000000002
:100BF00000B583B001900B468DF80330019B5A6914
:100C0000019B9B699A4205D1019B9B68002B01D0F7
:100C1000012300E0002303F00103DBB283F00103B2
:100C2000DBB2002B1DD0019B9B685A1C019B9A6074
:100C3000019B5B69591C019A51619DF803201A7050
:100C4000019B5A69019B1B699A4203D3019BDA6895
:100C5000019B5A61019B00211846FFF7D1FE00233A
:100C600001E04FF0FF33184603B05DF804FB00BF0E
:100C700000B585B001900091FFF792FE0CE0019B5A
:100C800000991846FFF7ACFE0290029B002B03DA96
:100C9000FFF78EFE029B26E0019B9B68002BEED0A7
:100CA000019B9B685A1E019B9A60019B9B69591C82
:100CB000019A91611B788DF80F30019B9A69019B15
:100CC0001B699A4203D3019BDA68019B9A61019BDD
:100CD000DB69002B03D0019BDB6901989847FFF784
:100CE00067FE9DF80F30184605B05DF804FB00BFA5
:100CF00000B589B00390029101920093039BDB69D8
:100D00000793019B0693FFF74BFE24E0019A02999B
:100D10000398FFF785FE0590059B002B09D1039BE7
:100D200000991846FFF75CFE0490049B002B12D03C
:100D300014E0079B002B02D0079B03989847FFF70E
:100D400037FE019A059BD31A0193029A059B13441F
:100D50000293FFF725FE019B002BD7D1FFF728FE5A
:100D6000069A019BD31A184609B05DF804FB00BF30
:100D700000B585B00390029101920093039B184641
:100D8000FFF71EFE039B019A9A60039B029ADA60AA
:100D9000039B029A9A61039B029A5A61029A019BF1
:100DA0001A44039B1A61039B009ADA61039B069A1B
:100DB0001A6200BF05B05DF804FB00BF0000000030
:100DC00000B587B003900B4601928DF80B30FFF70A
:100DD000E7FD0CE0039B01991846FFF701FE059023
:100DE000059B002B03DAFFF7E3FD059B25E0039B42
:100DF0009B68002BEED0039B9B685A1E039B9A6056
:100E0000039B5B69591C039A51619DF80B201A7072
:100E1000039B5A69039B1B699A4203D3039BDA68BD
:100E2000039B5A61039BDB69002B03D0039BDB69A7
:100E300003989847FFF7BCFD0023184607B05DF8FC
:100E400004FB00BF000000000000000000000000E4
:100E500000B585B00190019B5A69019B9B699A423C
:100E600005D1019B9B68002B01D0012300E00023EA
:100E700003F00103DBB283F00103DBB2002B1ED0D1
:100E8000019B9B685A1C019B9A60019B9B69591CA2
:100E9000019A91611B788DF80F30019B9A69019B33
:100EA0001B699A4203D3019BDA68019B9A61019BFB
:100EB00000211846FFF7A4FD9DF80F3001E04FF028
:100EC000FF33184605B05DF804FB00BF00000000CA
:100ED00000B589B00390029101920093039BDB69F6
:100EE0000793019B0693FFF75BFD24E0019A0299AB
:100EF0000398FFF7F5FD0590059B002B09D1039B97
:100F000000991846FFF76CFD0490049B002B12D04B
:100F100014E0079B002B02D0079B03989847FFF72C
:100F200047FD019A059BD31A0193029A059B13442E
:100F30000293FFF735FD019B002BD7D1FFF738FD5A
:100F4000069A019BD31A184609B05DF804FB00BF4E
:100F500082B030230193019B83F3118800BF00BF4F
:100F600000BF02B0704700BF00000000000000009A
:100F700082B000230193019B83F3118800BF00BF5F
:100F800000BF02B0704700BF00000000000000007A
:100F900008B5FFF7DDFF00BF08BD00BF000000007F
:100FA00008B5FFF7E5FF00BF08BD00BF0000000067
:100FB00000B583B0019000910099019804F090FE73
:100FC00000BF03B05DF804FB00000000000000005B
:100FD00000B583B00190019805F032F800BF03B06E
:100FE0005DF804FB000000000000000000000000AD
:100FF00008B501F0F5FD00BF08BD00BF000000000E
:1010000000B583B00190019B01221A70019B002260
:101010001A61019B00225A61019B18331846FFF7A1
:10102000D7FF00BF03B05DF804FB00BF0000000065
:1010300000B585B001900091FFF7AAFF019B009ACF
:101040001A61019801F0DCFD00230393039B002B40
:1010500003D1019B02221A7002E0019B01221A7047
:10106000FFF79EFF039B184605B05DF804FB00BF29
:1010700000B585B00390029101920093FFF788FFBD
:10108000009B019A0299039800F00AF8FFF788FF85
:1010900000BF05B05DF804FB000000000000000088
:1010A00000B585B00390029101920093039B019AD1
:1010B0009A60039B009ADA60039B029A5A60039B32
:1010C00003221A70039801F053FE00BF05B05DF8CB
:1010D00004FB00BF00000000000000000000000052
:1010E00000B583B00190FFF753FF019B1B78022BE3
:1010F0000FD0019801F034FF019B00225A60019B40
:1011000002221A70019B14336FF001011846FFF799
:101110004FFFFFF745FF00BF03B05DF804FB00BFC2
:1011200082B030230193019B83F3118800BF00BF7D
:1011300000BF02B0704700BF0000000000000000C8
:1011400082B000230193019B83F3118800BF00BF8D
:1011500000BF02B0704700BF0000000000000000A8
:1011600008B5FFF7DDFF00BF08BD00BF00000000AD
:1011700008B5FFF7E5FF00BF08BD00BF0000000095
:1011800008B502F03DFF00BF08BD00BF0000000031
:1011900082B00190019B01221A70019B00225A60CB
:1011A00000BF02B0704700BF000000000000000058
:1011B00000B585B001900091FFF7D2FF019B009A26
:1011C0005A60019802F034FF00230393039B002B25
:1011D00003D1019B02221A7002E0019B01221A70C6
:1011E000FFF7C6FF039B184605B05DF804FB00BF80
:1011F00000B583B001900091FFF7B2FF009901980C
:1012000000F006F8FFF7B4FF00BF03B05DF804FB81
:1012100000B583B001900091019B03221A700099E0
:10122000019802F08DFF00BF03B05DF804FB00BF22
:1012300000B583B00190FFF793FF019800F008F824
:10124000FFF796FF00BF03B05DF804FB000000004D
:1012500000B583B00190019B02221A70019802F040
:1012600097FF00BF03B05DF804FB00BF0000000063
:1012700082B00190019B019A1A6000BF02B07047D2
:1012800000B583B001900198FFF7F2FF00BF03B0F3
:101290005DF804FB000000000000000000000000FA
:1012A00000B583B0019000910099019804F0D0FF3F
:1012B00000BF03B05DF804FB000000000000000068
:1012C00000B585B0039002910192039B03F13000B9
:1012D0004FF0FF33019A0299FFF7FAFD03461846D3
:1012E00005B05DF804FB00BF000000000000000036
:1012F00000B585B0039002910192039B03F10C00AD
:101300004FF0FF33019A0299FFF7F2FC03461846AB
:1013100005B05DF804FB00BF000000000000000005
:1013200000B583B001900B468DF80330019B30333C
:101330009DF803104FF0FF321846FFF741FD0346BA
:10134000184603B05DF804FB000000000000000038
:1013500000B583B00190019B0C334FF0FF3118466C
:10136000FFF786FC0346184603B05DF804FB00BF98
:1013700000B585B003900B4601928DF80B30039BAE
:1013800030339DF80B10019A1846FFF719FD0346FC
:10139000184605B05DF804FB0000000000000000E6
:1013A00000B583B001900091019B0C330099184661
:1013B000FFF75EFC0346184603B05DF804FB00BF70
:1013C00000B585B00390029101920093039B03F155
:1013D0003000009B019A0299FFF77AFD03461846F8
:1013E00005B05DF804FB00BF000000000000000035
:1013F00000B585B00390029101920093039B03F125
:101400000C00009B019A0299FFF772FC03461846F4
:1014100005B05DF804FB00BF000000000000000004
:1014200086B0039002910192039B0593029B002BCF
:1014300003D0029B012B03D105E06FF0130303E0FF
:101440006FF0130300E00023184606B0704700BF9A
:1014500008B502F06DFF00BF08BD00BF000000002E
:1014600000B583B00190019B064A1A60019B0433CA
:101470001846FFF705FF019B01221A7200BF03B057
:101480005DF804FB9C9E00080000000000000000C6
:1014900000B583B001900B468DF80330019B5B696A
:1014A000002B05D1019B043304211846FFF7F8FEF9
:1014B000019B0C339DF8032011461846FFF798FB5B
:1014C0000346002B06DA019B04334FF400611846F3
:1014D000FFF7E6FE00BF03B05DF804FB000000006C
:1014E00082B030230193019B83F3118800BF00BFBA
:1014F00000BF02B0704700BF000000000000000005
:1015000082B000230193019B83F3118800BF00BFC9
:1015100000BF02B0704700BF0000000000000000E4
:1015200008B5FFF7DDFF00BF08BD00BF00000000E9
:1015300008B5FFF7E5FF00BF08BD00BF00000000D1
:1015400000B583B0019000910099019804F088FBE8
:101550000346184603B05DF804FB00BF000000001E
:1015600000B589B00390029101920093039B06930A
:101570000023079318E00099069800F0D1F9059030
:10158000059B002B15D1019A079BD31A1A46029985
:10159000069800F07DF90490079A049B1344079382
:1015A000029A049B13440293079A019B9A42E2D346
:1015B00000E000BF079B184609B05DF804FB00BFC0
:1015C00000B589B00390029101920093039B0693AA
:1015D0000023079318E00099069800F071F9059030
:1015E000059B002B15D1019A079BD31A1A46029925
:1015F000069800F035F90490079A049B134407936A
:10160000029A049B13440293079A019B9A42E2D3E5
:1016100000E000BF079B184609B05DF804FB00BF5F
:1016200000B585B00390029101924FF0FF33019A0B
:1016300002990398FFF794FF0346184605B05DF83A
:1016400004FB00BF000000000000000000000000DC
:1016500000B585B00390029101924FF0FF33019ADB
:1016600002990398FFF7ACFF0346184605B05DF8F2
:1016700004FB00BF000000000000000000000000AC
:1016800000B585B001900B468DF80330019B0393A4
:101690004FF0FF31039800F043F90290029B002BBA
:1016A00001D0029B06E09DF803301946039803F031
:1016B0005FF80023184605B05DF804FB0000000049
:1016C00000B585B00190019B03934FF0FF31039863
:1016D00000F0F6F80290029B002B01D0029B03E081
:1016E000039803F02DF80346184605B05DF804FB97
:1016F00000B587B003900B4601928DF80B30039B29
:1017000005930199059800F00BF90490049B002BB8
:1017100001D0049B06E09DF80B301946059803F0B4
:1017200027F80023184607B05DF804FB000000000E
:1017300000B585B001900091019B03930099039837
:1017400000F0BEF80290029B002B01D0029B03E048
:10175000039802F0F5FF0346184605B05DF804FB58
:1017600000B585B00390029101920093009B019A0D
:1017700002990398FFF7F4FE0346184605B05DF89A
:1017800004FB00BF0000000000000000000000009B
:1017900000B585B00390029101920093009B019ADD
:1017A00002990398FFF70CFF0346184605B05DF851
:1017B00004FB00BF0000000000000000000000006B
:1017C00000B587B0039002910192039B0593029BA1
:1017D000002B03D0029B012B03D109E06FF0130310
:1017E00007E0019A0299059802F0E2FF034600E043
:1017F0000023184607B05DF804FB00BF000000009E
:1018000008B502F0FDFE00BF08BD00BF00000000EB
:1018100082B00190019B104A1A60019B01221A714B
:10182000019B00229A60019B0022DA60019B00224A
:101830001A61019B00225A61019B00229A61019B5F
:101840000022DA61019B00221A62019B00225A6287
:1018500000BF02B0704700BFC49E00080000000037
:1018600000B585B0039002910192FFF759FE019AED
:101870000299039802F00CFF0190FFF759FE019BBB
:10188000184605B05DF804FB0000000000000000F1
:1018900000B585B0039002910192FFF741FE019AD5
:1018A0000299039802F01CFF0190FFF741FE019B93
:1018B000184605B05DF804FB0000000000000000C1
:1018C00000B585B001900091FFF72AFE019B9B6A4D
:1018D000DA6940F20F131340002B03D0FFF728FE04
:1018E000012318E00023039309E0019B18330099BA
:1018F0001846FFF725FE0390039B002B07D1019BA1
:101900009B6ADB6903F02003002BEED000E000BFF0
:10191000FFF70EFE039B184605B05DF804FB00BF01
:1019200000B585B001900091FFF7FAFD0023039305
:1019300009E0019B203300991846FFF701FE039050
:10194000039B002B07D1019B9B6ADB6903F080039B
:10195000002BEED000E000BFFFF7EAFD039B184626
:1019600005B05DF804FB00BF0000000000000000AF
:1019700082B030230193019B83F3118800BF00BF25
:1019800000BF02B0704700BF000000000000000070
:1019900082B000230193019B83F3118800BF00BF35
:1019A00000BF02B0704700BF000000000000000050
:1019B00008B5FFF7DDFF00BF08BD00BF0000000055
:1019C00008B5FFF7E5FF00BF08BD00BF000000003D
:1019D00000B583B0019000910099019804F040F99E
:1019E0000346184603B05DF804FB00BF000000008A
:1019F00000B583B00190019804F022FB00BF03B052
:101A00005DF804FB00000000000000000000000082
:101A100008B502F03DF900BF08BD00BF000000009E
:101A200000B583B00190019B01221A70019B002236
:101A30005A60019B00229A60019B0C331846FFF705
:101A4000D7FF00BF03B05DF804FB00BF000000003B
:101A500000B585B001900091FFF7AAFF019B009AA5
:101A60005A60019802F034F90390039B002B03D1D4
:101A7000019B02221A7002E0019B01221A70FFF7FB
:101A80009FFF039B184605B05DF804FB00000000B3
:101A900000B583B00190FFF78BFF019B5B681B696A
:101AA00001229A40019B5B68DB6892B25A83FFF780
:101AB00087FF00BF03B05DF804FB00BF000000001B
:101AC00000B583B00190FFF773FF019B5B681B6952
:101AD00001229A40019B5B68DB6892B21A83FFF790
:101AE0006FFF00BF03B05DF804FB00BF0000000003
:101AF00000B587B0039002910192039B03221A70F4
:101B0000019A0299039802F093F90590059B1846F3
:101B100007B05DF804FB00BF0000000000000000FB
:101B200000B585B001900091019B1B78032B07D174
:101B3000019B083300991846FFF74AFF039001E024
:101B400000230393039B184605B05DF804FB00BF18
:101B500000B587B0039002910192FFF729FF019A27
:101B600002990398FFF7C4FF0590059B002B05D150
:101B70004FF0FF310398FFF7D3FF0590FFF720FFE9
:101B8000059B184607B05DF804FB00BF000000008D
:101B900082B04FF0E0235B6800930023019310E0D4
:101BA0000C4A019B20334FF0FF3142F82310094AC1
:101BB000019B60334FF0FF3142F82310019B01334A
:101BC0000193019A009B9A42EAD900BF00BF02B07C
:101BD000704700BF00E100E00000000000000000CE
:101BE00082B001900091009BDBB2114A1B01D9B277
:101BF000019B134403F540730A461A70019B03F0DE
:101C00001F020B49019B5B09012000FA02F26033BD
:101C100041F82320019B03F01F020549019B5B094A
:101C2000012000FA02F241F8232000BF02B0704701
:101C300000E100E0000000000000000000000000E3
:101C400082B00190019B03F01F020F49019B5B09C9
:101C5000012000FA02F2203341F82320019B03F017
:101C60001F020949019B5B09012000FA02F260335F
:101C700041F82320044A019B134403F540730022DA
:101C80001A7000BF02B0704700E100E000000000E1
:101C900082B030230193019B83F3118800BF00BF02
:101CA00000BF00BF02B0704700000000000000004D
:101CB00082B000230193019B83F3118800BF00BF12
:101CC00000BF00BF02B0704700000000000000002D
:101CD00008B5FFF7DDFF00BF08BD00BF0000000032
:101CE00008B5FFF7E5FF00BF08BD00BF000000001A
:101CF00000B583B0019000910099019804F040F87C
:101D000000BF03B05DF804FB00000000000000000D
:101D100008B506210620FFF763FF00BF08BD00BF1E
:101D200000B583B0144B5B6903F001030193019B81
:101D30000093114A019B5361009B03F00103002BA8
:101D400011D00E4B9B68002B05D00C4B9B680B4AA7
:101D5000D26810469847FFF7BBFF00210748FFF7FE
:101D6000C7FFFFF7BDFF064B4FF080525A6000BF20
:101D700003B05DF804FB00BF00040140F010002038
:101D800000ED00E000000000000000000000000086
:101D900008B506210720FFF723FF00BF08BD00BFDD
:101DA00000B583B0144B5B6903F002030193019B00
:101DB0000093114A019B5361009B03F00203002B27
:101DC00011D00E4B9B69002B05D00C4B9B690B4A25
:101DD000D26910469847FFF77BFF00210848FFF7BC
:101DE00087FFFFF77DFF074B4FF080525A6000BF1F
:101DF00003B05DF804FB00BF00040140F0100020B8
:101E00000011002000ED00E00000000000000000D4
:101E100008B506210820FFF7E3FE00BF08BD00BF9C
:101E200000B583B0144B5B6903F004030193019B7D
:101E30000093114A019B5361009B03F00403002BA4
:101E400011D00E4B9B6A002B05D00C4B9B6A0B4AA2
:101E5000D26A10469847FFF73BFF00210848FFF77A
:101E600047FFFFF73DFF074B4FF080525A6000BF1E
:101E700003B05DF804FB00BF00040140F010002037
:101E80001011002000ED00E0000000000000000044
:101E900008B506210920FFF7A3FE00BF08BD00BF5B
:101EA00000B583B0144B5B6903F008030193019BF9
:101EB0000093114A019B5361009B03F00803002B20
:101EC00011D00E4B9B6B002B05D00C4B9B6B0B4A20
:101ED000D26B10469847FFF7FBFE00210848FFF73A
:101EE00007FFFFF7FDFE074B4FF080525A6000BF1F
:101EF00003B05DF804FB00BF00040140F0100020B7
:101F00002011002000ED00E00000000000000000B3
:101F100008B506210A20FFF763FE00BF08BD00BF19
:101F200000B583B0144B5B6903F010030193019B70
:101F30000093114A019B5361009B03F01003002B97
:101F400011D00E4B9B6C002B05D00C4B9B6C0B4A9D
:101F5000D26C10469847FFF7BBFE00210848FFF7F8
:101F6000C7FEFFF7BDFE074B4FF080525A6000BF1F
:101F700003B05DF804FB00BF00040140F010002036
:101F80003011002000ED00E0000000000000000023
:101F900008B506211720FFF723FE00BF08BD00BFCC
:101FA00000B583B0454B5B6903F478730193019BE3
:101FB0000093424A019B5361009B03F02003002BD6
:101FC00011D03F4B9B6D002B05D03D4B9B6D3C4A88
:101FD000D26D10469847FFF77BFE00213948FFF786
:101FE00087FEFFF77DFE009B03F04003002B11D01E
:101FF000334B9B6E002B05D0314B9B6E304AD26E1B
:1020000010469847FFF764FE00212F48FFF770FE47
:10201000FFF766FE009B03F08003002B11D0284BD6
:102020009B6F002B05D0264B9B6F254AD26F104625
:102030009847FFF74DFE00212448FFF759FEFFF7B0
:102040004FFE009B03F48073002B14D01C4BD3F87D
:102050008830002B07D01A4BD3F88830184AD2F8B2
:102060008C2010469847FFF733FE00211848FFF7F1
:102070003FFEFFF735FE009B03F40073002B14D0E6
:102080000F4BD3F89830002B07D00D4BD3F8983076
:102090000B4AD2F89C2010469847FFF719FE002102
:1020A0000C48FFF725FEFFF71BFE0B4B4FF080524D
:1020B0005A6000BF03B05DF804FB00BF000401409C
:1020C000F01000204011002050110020601100206D
:1020D000701100208011002000ED00E000000000E1
:1020E00008B506212820FFF77BFD00BF08BD00BF13
:1020F00000B583B0564B5B6903F47C430193019BAD
:102100000093534A019B5361009B03F48063002BAF
:1021100014D0504BD3F8A830002B07D04D4BD3F838
:10212000A8304C4AD2F8AC2010469847FFF7D0FDB3
:1021300000214948FFF7DCFDFFF7D2FD009B03F4C7
:102140000063002B14D0434BD3F8B830002B07D0DA
:10215000404BD3F8B8303F4AD2F8BC2010469847DD
:10216000FFF7B6FD00213D48FFF7C2FDFFF7B8FDC0
:10217000009B03F48053002B14D0364BD3F8C830A7
:10218000002B07D0334BD3F8C830324AD2F8CC20DA
:1021900010469847FFF79CFD00213148FFF7A8FD46
:1021A000FFF79EFD009B03F40053002B14D0294B36
:1021B000D3F8D830002B07D0264BD3F8D830254A97
:1021C000D2F8DC2010469847FFF782FD0021254811
:1021D000FFF78EFDFFF784FD009B03F48043002B87
:1021E00014D01C4BD3F8E830002B07D0194BD3F890
:1021F000E830184AD2F8EC2010469847FFF768FDFF
:1022000000211948FFF774FDFFF76AFD009B03F4F6
:102210000043002B14D00F4BD3F8F830002B07D01D
:102220000C4BD3F8F8300B4AD2F8FC2010469847F4
:10223000FFF74EFD00210D48FFF75AFDFFF750FD57
:102240000B4B4FF080525A6000BF03B05DF804FBA7
:1022500000040140F010002090110020A011002087
:10226000B0110020C0110020D0110020E01100208A
:1022700000ED00E000000000000000000000000091
:1022800000BF7047000000000000000000000000D8
:1022900000BF7047000000000000000000000000C8
:1022A00000BF7047000000000000000000000000B8
:1022B00000BF7047000000000000000000000000A8
:1022C00000BF704700000000000000000000000098
:1022D00000BF704700000000000000000000000088
:1022E00000BF704700000000000000000000000078
:1022F00000BF704700000000000000000000000068
:1023000000BF704700000000000000000000000057
:1023100000BF704700000000000000000000000047
:1023200000BF704700000000000000000000000037
:1023300008B50C212620FFF753FC00BF08BD00BFE5
:1023400008B5044802F024F8034B4FF080525A605D
:1023500000BF08BD4812002000ED00E000000000B2
:1023600000BF7047000000000000000000000000F7
:1023700000BF7047000000000000000000000000E7
:1023800000BF7047000000000000000000000000D7
:1023900008B50C215B20FFF723FC00BF08BD00BF80
:1023A00008B5044802F00CFA034B4FF080525A6013
:1023B00000BF08BDC812002000ED00E000000000D2
:1023C00000BF704700000000000000000000000097
:1023D00008B507211C20FFF703FC00BF08BD00BFA4
:1023E00008B501F0E5FD034B4FF080525A6000BF85
:1023F00008BD00BF00ED00E000000000000000008C
:1024000008B507211D20FFF7EBFB00BF08BD00BF8B
:1024100008B5044801F0D4FE034B4FF080525A60D7
:1024200000BF08BD2812002000ED00E00000000001
:1024300000BF704700000000000000000000000026
:1024400000BF704700000000000000000000000016
:1024500008B507213620FFF7C3FB00BF08BD00BF4A
:1024600008B5044801F0ACFE034B4FF080525A60AF
:1024700000BF08BD3812002000ED00E000000000A1
:1024800000BF7047000000000000000000000000D6
:1024900000BF7047000000000000000000000000C6
:1024A00000BF7047000000000000000000000000B6
:1024B00008B5FFF72DFCFFF76BFCFFF7A9FCFFF752
:1024C000E7FCFFF725FDFFF763FDFFF709FEFFF7C8
:1024D000D7FEFFF7DDFEFFF7E3FEFFF7E9FEFFF7AC
:1024E000EFFEFFF7F5FEFFF7FBFEFFF701FFFFF73B
:1024F00007FFFFF70DFFFFF763FFFFF769FFFFF728
:102500007FFFFFF795FFFFF79BFFFFF7A1FFFFF7A7
:10251000B7FFFFF7BDFFFFF7C3FFFFF701FFFFF7AF
:1025200007FFFFF71DFFFFF723FFFFF729FFFFF767
:102530002FFF00BF08BD00BF00000000000000002A
:1025400000B583B00190019802F0EAFA00BF03B031
:102550005DF804FB00000000000000000000000027
:10256000094BD3F89030084A43F01903C2F8903071
:1025700000BF054BD3F8903003F00203022BF8D1D3
:1025800000BF00BF704700BF001002400000000005
:1025900000BF7047000000000000000000000000C5
:1025A000074B1B68064A43F48073136000BF044B5B
:1025B0001B6803F48063002BF9D000BF00BF704795
:1025C00000100240000000000000000000000000B9
:1025D000034B1B68024A23F48073136000BF7047EB
:1025E0000010024000000000000000000000000099
:1025F00008B5FFF7D5FF064B01229A6000BF044BD8
:102600009B6803F00C03042BF9D100BF00BF08BD89
:102610000010024000000000000000000000000068
:10262000094BD3F89830084A43F00103C2F89830B8
:1026300000BF054BD3F8983003F00203002BF8D00D
:1026400000BF00BF704700BF001002400000000044
:10265000074B1B68064A43F48033136000BF044BEA
:102660001B6803F40033002BF9D000BF00BF704794
:102670000010024000000000000000000000000008
:10268000054B1B6803F00073002B0CBF01230023D4
:10269000DBB21846704700BF001002400000000087
:1026A00082B0094BD3F890300193019B23F00323B0
:1026B0000193019B43F480730193034A019BC2F889
:1026C000903000BF02B070470010024000000000D0
:1026D000094BD3F8903003F44073B3F5807F08D0F2
:1026E000054B4FF48032C3F89020034B0022C3F80F
:1026F000902000BF704700BF0010024000000000A3
:1027000082B00190074A019B136000BF054B1A6815
:10271000019B534003F00F03002BF7D100BF00BF14
:1027200002B07047002002400000000000000000DE
:10273000204B9B6D1F4A43F0805393651D4B9B6F4D
:102740001C4A23F0805393671A4B9B6F1A4B4FF42C
:1027500000429A60184B0022DA60174B00221A627E
:10276000154B00225A62144B00229A62124B00222F
:10277000DA62114B00221A630F4B00225A630E4B90
:1027800000229A630C4B0022DA630B4B00221A647E
:10279000094B00225A64084B00229A64064B00221F
:1027A000DA64054B00221A65034B00225A6500BF0C
:1027B000704700BF001002400070004000000000A1
:1027C000064B4FF480629A60044B054AC3F8882098
:1027D000024B0022C3F89C2000BF7047001002404B
:1027E0005501005000000000000000000000000043
:1027F00000B583B00190524B4FF400721A6000BFD5
:102800004F4B5B6903F4C063002BF9D14D4B9B68C0
:1028100003F00C03042B17D0FFF7EAFE4A48FFF73A
:102820006FFF484B0022C3F89820464B63221A6082
:1028300000BF444B1B6803F40033002BF9D1404B1D
:102840004FF48072C3F88020019BDB6803F480336F
:10285000002B01D0FFF7FCFE019BDB6903F00103B5
:10286000002B01D0FFF7DCFE364A019B5B69D36089
:10287000019BDB68334A43F480731360019BDB6880
:1028800003F08073002B05D0FFF7FAFE0346002B00
:1028900000D0F3E700BF2B4B9B6803F00302019BC2
:1028A0001B6923F00303274913438B60019B9B693A
:1028B0001846FFF725FF224A019B1B681360204A38
:1028C000019B5B6853601E4A019B9B68C2F8803085
:1028D000019B1B6803F48043002B07D100BF184BFA
:1028E0005B6903F40073002BF9D106E000BF144BC1
:1028F0005B6903F40073002BF9D0124B9B6823F043
:102900000302019B1B6903F003030E4913438B6011
:1029100000BF0C4B9A68019B1B699B00534003F05E
:102920000C03002BF5D1019BDB6803F48073002BB3
:1029300001D1FFF74DFE0023184603B05DF804FBFC
:10294000007000400010024000060400000000007B
:1029500008B500F055FCFFF71BF9FFF7A9FD00BF14
:1029600008BD00BF000000000000000000000000E3
:1029700008B53E4B9B6A3D4B4FF0FF329A623B4B92
:102980009B6A3A4B00229A62384B9B6A374BDB6A50
:10299000364A63F07F03D362344BDB6A334A03F079
:1029A0007F03D362314BDB6A304B1B6B2F4B4FF0F5
:1029B000FF321A632D4B1B6B2C4B00221A632B4BDF
:1029C0001B6B2A4B9B6B294B4FF0FF329A63274BB3
:1029D0009B6B264B00229A63244B9B6B234BDB6B38
:1029E000224B4FF0FF32DA63204BDB6B1F4B002290
:1029F000DA631E4BDB6B1D4B1B6C1C4B4FF0FF3225
:102A00001A641A4B1B6C194B00221A64174B1B6C6F
:102A1000164B1B6E154A43F001031366134BD3F894
:102A20008030124A23F00103C2F880300F4BD3F8F4
:102A30008030FFF77DFE0E4B1B680D4A43F4807318
:102A40001360FFF745FEFFF78BFDFFF7A1FDFFF7D2
:102A5000B7FE0848FFF7CCFE0346002B02D006481D
:102A6000FFF76EFDFFF71CFE00BF08BD001002401F
:102A700000700040EC9E00080C9F00080000000061
:102A800082B00190034A019B52F82330184602B0ED
:102A9000704700BF00080020000000000000000098
:102AA00082B030230193019B83F3118800BF00BFE4
:102AB00000BF00BF02B0704700000000000000002F
:102AC00082B000230193019B83F3118800BF00BFF4
:102AD00000BF00BF02B0704700000000000000000F
:102AE00008B5FFF7DDFF00BF08BD00BF0000000014
:102AF00008B5FFF7E5FF00BF08BD00BF00000000FC
:102B000000B583B0019000910099019803F0D0F8CE
:102B100000BF03B05DF804FB0000000000000000EF
:102B200000B583B001900091009B03F00803002BD7
:102B300029D0019800F014FA019800F011FA019BD5
:102B40005B689B68002B0FD0019B05221A70019BCC
:102B50005B689B68002101989847019B1B78052BB7
:102B600002D1019B02221A70019B00225A60FFF7DA
:102B7000B7FF019B14334FF0FF311846FFF7C0FF3A
:102B8000FFF7B6FF27E0009B03F00403002B09D0FA
:102B9000019B5B685B68002B04D0019B5B685B68F2
:102BA00001989847009B03F00203002B13D0019B70
:102BB0005B685B68002B0ED0019B04221A70019B9E
:102BC0005B685B6801989847019B1B78042B02D1D6
:102BD000019B03221A7000BF03B05DF804FB00BF25
:102BE00008B50548FEF70CFA034B044A9A62024BFB
:102BF0000022DA6200BF08BD38100020149F0008D0
:102C000000B585B00190019B1B78012B4AD10023B0
:102C10000393019B254A93420DD1254BDB6C244A3B
:102C200043F48033D364224BDB6E214A43F4803378
:102C3000D3661F4BDB6E019B1B699B78032B09D06E
:102C4000019B1B699B78042B04D0019B1B699B781B
:102C5000052B16D1019B1B695B681A04019B1B693C
:102C60005B681A43019B9B6A1B6842F001121A6061
:102C7000019B1B691B881A460121019800F020F86E
:102C800008E0019B1B695A68019B9B6A1B6842F024
:102C900001021A60019B1B691B881A46039901985F
:102CA00000F00EF800BF05B05DF804FB38100020FE
:102CB00000100240000000000000000000000000C2
:102CC00084B0039002911346ADF80630039B1B6954
:102CD0009B78052B41D801A252F823F0F52C00086F
:102CE000172D0008392D0008F52C0008172D0008B5
:102CF000392D0008029B002B06D1039B9B6A1B68A1
:102D0000BDF806209A6029E0039B9B6A1B68BDF80A
:102D100006205A6122E0029B002B06D1039B9B6A8E
:102D20001B68BDF80620DA6018E0039B9B6A1B68ED
:102D3000BDF806209A6111E0029B002B06D1039B8F
:102D40009B6A1B68BDF806201A6107E0039B9B6A1B
:102D50001B68BDF80620DA6100E000BF00BF04B0C8
:102D6000704700BF000000000000000000000000ED
:102D700000B587B00190019BDB68019A5268126828
:102D800002FB03F30393019B9B6A1869019B9B6AF7
:102D90009969019B704A00F06BFA0246019BDA6266
:102DA000019BDA6A019B9B6ADB691946104600F0B9
:102DB000DFFB019B1B699B78052B00F2C98001A2F8
:102DC00052F823F0DD2D0008072E0008312E0008F0
:102DD000632E0008892E0008AF2E0008019B9B6A15
:102DE0001B6803F10802019B9B6A5B689B001A4405
:102DF000019BDB6A5B689A60019B9B6A5B6943F499
:102E0000C063049366E0019B9B6A1B6803F10C029C
:102E1000019B9B6A5B689B001A44019BDB6A5B68B1
:102E20009A60019B9B6A5B6943F4C063049351E021
:102E3000019B9B6A1B6803F11002019B9B6A5B6804
:102E40009B001A44019BDB6A5B689A60019B9B6A4A
:102E50005B6943F400730493039B01335B080393A2
:102E600038E0019B9B6A1B6803F12002019BDB6A2F
:102E70005B689A60019B9B6A5B6943F420630493DF
:102E8000039B5B08039325E0019B9B6A1B6803F18E
:102E90002402019BDB6A5B689A60019B9B6A5B6909
:102EA00043F420630493039B5B08039312E0019BAC
:102EB0009B6A1B6803F12802019BDB6A5B689A60CE
:102EC000019B9B6A5B6943F4C0630493039B5B08AB
:102ED000039300BF019B9A68019BDB6A5B68DA6021
:102EE000019BDB6A5B68039A5A60019BDB6A5B6843
:102EF000049A42F00E021A60019BDB6A5B681A6852
:102F0000019BDB6A5B6842F001021A60019B9B6ACD
:102F10001B681B680593019B5B68DB689A00019B3B
:102F20001B695B681A43019B5B68DB689B041A435F
:102F3000019B1B695B681B04134343F0031343F4B9
:102F400080530593019B9B6A1B68059A1A6000E0F9
:102F500000BF07B05DF804FB212B00080000000053
:102F600000B585B00190019BDB6A5B681A68019B24
:102F7000DB6A5B6822F00F021A60019BDB6A1B7C34
:102F80001A460E2303FA02F2019BDB6A1B685A60A1
:102F9000019BDB6A184600F033FA019B0022DA62DB
:102FA000019B9B6A1B681B680393019B1B699B78B1
:102FB000032B09D0019B1B699B78042B04D0019B38
:102FC0001B699B78052B0BD1019B1B695B681A045D
:102FD000019B1B695B68134343F00113039305E0F6
:102FE000019B1B695B6843F001030393019B9B6A90
:102FF0001B68039A1A6000BF05B05DF804FB00BFB0
:1030000008B5044800F074FA034B4FF080525A6040
:1030100000BF08BD349F000800ED00E00000000084
:1030200008B5044800F064FA034B4FF080525A6030
:1030300000BF08BD489F000800ED00E00000000050
:1030400008B5044800F054FA034B4FF080525A6020
:1030500000BF08BD5C9F000800ED00E0000000001C
:1030600008B5044800F044FA034B4FF080525A6010
:1030700000BF08BD709F000800ED00E000000000E8
:1030800008B5044800F034FA034B4FF080525A6000
:1030900000BF08BD849F000800ED00E000000000B4
:1030A00008B5044800F024FA034B4FF080525A60F0
:1030B00000BF08BD989F000800ED00E00000000080
:1030C00008B5044800F014FA034B4FF080525A60E0
:1030D00000BF08BDAC9F000800ED00E0000000004C
:1030E00008B5044800F004FA034B4FF080525A60D0
:1030F00000BF08BDC09F000800ED00E00000000018
:1031000008B5044800F0F4F9034B4FF080525A60C0
:1031100000BF08BDD49F000800ED00E000000000E3
:1031200008B5044800F0E4F9034B4FF080525A60B0
:1031300000BF08BDE89F000800ED00E000000000AF
:1031400008B5044800F0D4F9034B4FF080525A60A0
:1031500000BF08BDFC9F000800ED00E0000000007B
:1031600008B5044800F0C4F9034B4FF080525A6090
:1031700000BF08BD10A0000800ED00E00000000046
:1031800008B5044800F0B4F9034B4FF080525A6080
:1031900000BF08BD24A0000800ED00E00000000012
:1031A00008B5044800F0A4F9034B4FF080525A6070
:1031B00000BF08BD38A0000800ED00E000000000DE
:1031C00008B5044800F094F9034B4FF080525A6060
:1031D00000BF08BD4CA0000800ED00E000000000AA
:1031E00008B5044800F084F9034B4FF080525A6050
:1031F00000BF08BD60A0000800ED00E00000000076
:1032000082B0154B00221A60134B00225A60002333
:10321000019313E01149019A13469B0013449B004C
:103220000B4404331B6800221A600B4A019B0133D4
:10323000002142F83310019B01330193019B0F2BB6
:10324000E8DD074B4FF0FF325A60064B4FF0FF327C
:103250005A6000BF02B0704768100020349F000819
:1032600000000240000402400000000000000000D6
:1032700000B58BB00390029101920093039B0F2B3A
:1032800004D8039B0893039B079319E0039B102B1F
:1032900004D1002308930F23079311E0039B112B04
:1032A00004D1002308930723079309E0039B122B03
:1032B00004D1082308930F23079301E0002395E02E
:1032C000089B09938CE00122099B02FA03F3069301
:1032D000484B1A68069B1340002B7ED1099A13466F
:1032E0009B0013449B00444A134405934149099BA6
:1032F0000133019A41F833203E4A099B0133DB0038
:103300001344009A5A603B4B1A68069B1343394A90
:103310001360069BDBB2002B0DD0384B9B6C374AF9
:1033200043F001039364354B9B6E344A43F0010331
:103330009366324B9B6E069B03F47F43002B0DD0AC
:103340002E4B9B6C2D4A43F0020393642B4B9B6ED8
:103350002A4A43F002039366284B9B6E254B1B6859
:10336000002B0DD0254B9B6C244A43F0040393643F
:10337000224B9B6E214A43F0040393661F4B9B6EC6
:10338000019B002B12D01B4B5A68059B9B68134076
:10339000002B05D1059B9B7C02991846FEF720FC6B
:1033A000144B5A68069B1343124A5360059B5B6893
:1033B0001A68059B5B6822F00F021A60059B1B7C54
:1033C0001A460E2303FA02F2059B1B685A60059BFE
:1033D0005B6800221A60059B08E0099B0133099392
:1033E000099A079B9A427FF66EAF002318460BB0EE
:1033F0005DF804FB68100020349F000800100240B4
:1034000000B585B00190019B5B7C0393344B1A6837
:103410000121039B01FA03F3DB431340304A13609D
:103420002F4B5A680121039B01FA03F3DB4313403E
:103430002B4A53602A4B5A68019B9B681340002B10
:1034400004D1019B9B7C1846FEF7FAFB244A039BA0
:103450000133002142F83310214A039B0133DB0082
:10346000134400225A601E4B1B68DBB2002B0DD1A7
:103470001C4B9B6C1B4A23F001039364194B9B6EFE
:10348000184A23F001039366164B9B6E144B1B687E
:1034900003F47F43002B0DD1124B9B6C114A23F098
:1034A000020393640F4B9B6E0E4A23F00203936654
:1034B0000C4B9B6E0A4B1B68002B0DD1094B9B6C70
:1034C000084A23F004039364064B9B6E054A23F0DD
:1034D00004039366034B9B6E00BF05B05DF804FBCD
:1034E00068100020001002400000000000000000F2
:1034F00000B585B00190019B5B7C0393019B1B6829
:103500001B68019A127CD34003F00E030293019BC7
:103510005B681A68029B1340002B1CD0019B1B7C2C
:103520001946019B1B68029A8A405A600C4A039B09
:10353000013352F83330002B0DD0094A039B01337D
:1035400052F833200649039B0133DB000B445B68D0
:1035500002991846904700BF05B05DF804FB00BF14
:1035600068100020000000000000000000000000C3
:1035700082B001900091019BDB68009A1A6000BF45
:1035800002B07047000000000000000000000000D2
:1035900082B00190019B019A1A60019B019A5A60C6
:1035A00000BF02B0704700BF000000000000000034
:1035B00000B583B00190019B1846FFF7E9FF00BFFB
:1035C00003B05DF804FB00BF000000000000000035
:1035D00000B583B001900198FFF7EAFF00BF03B088
:1035E0005DF804FB00000000000000000000000087
:1035F00000B583B00023019317E0019B1B010F4A24
:1036000013441846FFF7E4FF0C4A019B1B011344C7
:10361000083300221A60094A019B1B0113440C3332
:1036200000221A60019B01330193019B0F2BE4D907
:1036300000BF00BF03B05DF804FB00BFF010002026
:103640008EB0039002910192019B03F003030D934E
:10365000019B9B0803F001030C93019BDB0803F023
:1036600003030B93019B5B0903F003030A93019B84
:10367000DB0903F00F03089300230993029B03F077
:103680000103002B79D0099B03F007039B00089AE4
:1036900002FA03F307930122099B02FA03F306934C
:1036A000099B5B00032202FA03F30593099B03F0D5
:1036B00007039B000F2202FA03F30493039B5A684B
:1036C000069BDB431A400C9B1A43039B5A60039BE7
:1036D0009A68059BDB431A400B9B1A43039B9A6035
:1036E000039BDA68059BDB431A400A9B1A43039B42
:1036F000DA60019B03F00303022B1FD1099B072B08
:1037000009D8039B1A6A049BDB431A40079B1A43A0
:10371000039B1A6208E0039B5A6A049BDB431A402E
:10372000079B1A43039B5A62039B1A68059BDB4362
:103730001A400D9B1A43039B1A601EE0039B1A68F4
:10374000059BDB431A400D9B1A43039B1A60099BA0
:10375000072B09D8039B1A6A049BDB431A40079B7B
:103760001A43039B1A6208E0039B5A6A049BDB43DB
:103770001A40079B1A43039B5A62029B5B08029301
:10378000029B002B0FD00C9B5B000C930B9B9B00B0
:103790000B930A9B9B000A930D9B9B000D93099B27
:1037A000013309936AE700BF0EB0704700000000C4
:1037B00082B030230193019B83F3118800BF00BFC7
:1037C00000BF00BF02B07047000000000000000012
:1037D00082B000230193019B83F3118800BF00BFD7
:1037E00000BF00BF02B070470000000000000000F2
:1037F00000B583B00190019801F092F900BF03B0C9
:103800005DF804FB00000000000000000000000064
:1038100008B5FFF7CDFF00BF08BD00BF00000000E6
:1038200008B5FFF7D5FF00BF08BD00BF00000000CE
:1038300000B583B0019000910099019802F038FA28
:1038400000BF03B05DF804FB0000000000000000B2
:1038500084B00190019B5B685B78002B0FD0019BCB
:103860005B689B8A23F044030393019B5B68DB8ABC
:1038700043F4805343F003039BB2029311E0019B96
:103880005B689B8A43F004039BB223F040030393DD
:10389000019B5B68DB8A43F4805343F007039BB2D0
:1038A0000293019BDB69039A1A60019BDB69029A10
:1038B0005A60019BDB69039A42F040021A6000BF24
:1038C00004B070470000000000000000000000008D
:1038D00082B00190019B5B685B7883F00103DBB2EF
:1038E000002B3AD0019B5B6A5B681A68019B5B6A9C
:1038F0005B6822F00F021A60019B5B6A1B7C1A4610
:103900000E2303FA02F2019B5B6A1B685A6000BF38
:10391000019BDB699B6803F08003002BF8D1019BBE
:10392000DB6900221A60019BDB6900225A60019B5F
:103930001B6A5B681A68019B1B6A5B6822F00F02B6
:103940001A60019B1B6A1B7C1A460E2303FA02F2C3
:10395000019B1B6A1B685A603BE0019B5B6A5B68CA
:103960001A68019B5B6A5B6822F00F021A60019B78
:103970005B6A1B7C1A460E2303FA02F2019B5B6A08
:103980001B685A60019B1B6A5B681A68019B1B6A73
:103990005B6822F00F021A60019B1B6A1B7C1A46AF
:1039A0000E2303FA02F2019B1B6A1B685A60019BFB
:1039B000094A93420DD1094B1B6C084A43F48053CA
:1039C0001364064B1B6C054A23F480531364034BAA
:1039D0001B6C00BF02B07047F011002000100240C5
:1039E00000B583B001900091009B03F00803002B09
:1039F00041D06048FFF7FCFE019B5B6A5B681A6878
:103A0000019B5B6A5B6822F00F021A60019B5B6A94
:103A10001B7C1A460E2303FA02F2019B5B6A1B68A9
:103A20005A60019B1B6A5B681A68019B1B6A5B6892
:103A300022F00F021A60019B1B6A1B7C1A460E23A0
:103A400003FA02F2019B1B6A1B685A60019B5B68C8
:103A50009B68002B04D0019B5B689B68019898478A
:103A6000FFF7D6FE019B083300211846FFF7E0FE62
:103A7000FFF7D6FE79E0019B5B681B78002B28D00E
:103A8000009B03F00403002B09D0019B5B685B687B
:103A9000002B04D0019B5B685B6801989847009BF2
:103AA00003F00203002B60D0019B5B685B68002B76
:103AB0005BD0019B04221A70019B5B685B680198D4
:103AC0009847019B1B78042B4FD1019B03221A704E
:103AD0004BE0019B5B6A5B681A68019B5B6A5B68F1
:103AE00022F00F021A60019B5B6A1B7C1A460E23B0
:103AF00003FA02F2019B5B6A1B685A60019B1B6A16
:103B00005B681A68019B1B6A5B6822F00F021A60EF
:103B1000019B1B6A1B7C1A460E2303FA02F2019BCF
:103B20001B6A1B685A60019B5B685B68002B0FD0A7
:103B3000019B04221A70019B5B685B68019898479F
:103B4000019B1B78042B06D1019B02221A7002E014
:103B5000019B02221A70FFF75BFE019B08330021D4
:103B60001846FFF765FEFFF75BFE00BF03B05DF888
:103B700004FB00BF74A0000800000000000000006B
:103B800000B583B001900091009B03F00803002B67
:103B900040D02248FFF72CFE019B5B6A5B681A68E5
:103BA000019B5B6A5B6822F00F021A60019B5B6AF3
:103BB0001B7C1A460E2303FA02F2019B5B6A1B6808
:103BC0005A60019B1B6A5B681A68019B1B6A5B68F1
:103BD00022F00F021A60019B1B6A1B7C1A460E23FF
:103BE00003FA02F2019B1B6A1B685A60019B5B6827
:103BF0009B68002B04D0019B5B689B6801989847E9
:103C0000FFF706FE019B083300211846FFF710FE60
:103C1000FFF706FE00BF03B05DF804FB74A00008C8
:103C200000B585B00390029101920093039B154A61
:103C300000990298FFF71CFB0246039B1A62039B44
:103C40001B6A002B02D16FF0100316E0039B0E4A93
:103C500000990198FFF70CFB0246039B5A62039BF5
:103C60005B6A002B07D1039B1B6A1846FFF7C8FB52
:103C70006FF0100301E0002300BF184605B05DF8A7
:103C800004FB00BFE1390008813B00080000000090
:103C900008B50B48FDF7C4FE094B0A4ADA61084B28
:103CA00000221A62064B00225A62054B41F20A02B8
:103CB0009A62034B41F21802DA6200BF08BD00BFEE
:103CC000F011002000300140000000000000000062
:103CD00000B585B00190019B4FF0FF325A63019B04
:103CE0001B78012B4BD1019B4E4A934236D10A23BC
:103CF000102210210198FFF793FF0390039B002BE4
:103D000001D0039B8AE0484B1B6E474A43F4805323
:103D10001366454BD3F88030434A43F48053C2F8CE
:103D20008030414BD3F880303F4B1B6C3E4A43F40C
:103D3000805313643C4B1B6C3B4A23F48053136445
:103D4000394B1B6C019B1B6A0A211846FFF710FCBC
:103D5000019B5B6A0B211846FFF70AFC019BDB699C
:103D600003F10C02019B1B6A5B689A60019BDB6993
:103D700003F10C02019B5B6A5B689A6002E00198A8
:103D8000FFF7A6FD019B5B68DB8A03F47063029377
:103D9000029B002B03D0029BB3F5E06F0CD8019B74
:103DA0009B6A23F47062019B9A62019BDB6A23F495
:103DB0007062019BDA620FE0019B9B6A23F47063DF
:103DC00043F4A062019B9A62019BDB6A23F4706357
:103DD00043F4A062019BDA62019B5B681B78002BB5
:103DE0000CD0019B9B6A43F02402019B9A62019BC9
:103DF000DB6A43F02402019BDA620BE0019B9B6AC1
:103E000023F02402019B9A62019BDB6A23F02402C7
:103E1000019BDA620198FFF71BFD0023184605B0ED
:103E20005DF804FBF01100200010024000000000CB
:103E300084B0039002910192039B03F13002039B33
:103E40001B6A5B68DA60039B1B6A5B68029A5A60B4
:103E5000039B1B6A5B68039A926A1A60039B5B6A06
:103E60005B68019ADA60039B5B6A5B68029A5A603E
:103E7000039BDA6A039B5B6A5B6842F080021A600C
:103E8000039B1B6A5B681A68039B1B6A5B6842F0B2
:103E900001021A60039B5B6A5B681A68039B5B6A9A
:103EA0005B6842F001021A600023184604B07047B4
:103EB00082B030230193019B83F3118800BF00BFC0
:103EC00000BF00BF02B0704700000000000000000B
:103ED00082B000230193019B83F3118800BF00BFD0
:103EE00000BF00BF02B070470000000000000000EB
:103EF00008B5FFF7DDFF00BF08BD00BF00000000F0
:103F000008B5FFF7E5FF00BF08BD00BF00000000D7
:103F100008B500F01DFE00BF08BD00BF0000000096
:103F200008B51F4B9B6D1E4A43F0010393651C4B64
:103F30009B6F1B4A43F001039367194B9B6F194B0F
:103F40009B68184A43F0010393600620FEF798FD32
:103F50000346154AA2FB03235B0B4FF08042013B53
:103F600093624FF080434FF0FF32DA624FF08043AC
:103F700000229A614FF0804300225A634FF0804341
:103F80000022DA604FF0804300225A604FF08043F5
:103F900001225A614FF0804301221A6000BF08BD20
:103FA00000100240002004E05917B7D100000000C3
:103FB00000B583B04FF080430193019B1B690093D0
:103FC000019BDB68DBB2009A13400093009BDA434D
:103FD000019B1A61009B03F00203002B05D0FFF741
:103FE00087FFFFF795FFFFF78BFF00BF03B05DF87A
:103FF00004FB00BF00000000000000000000000003
:1040000008B5074B074ADA600548FDF7C1F8064BCB
:10401000064ADA600448FDF7BBF800BF08BD00BFE0
:104020002812002000040040381200200010004038
:1040300000B585B00190019B1B78012B4BD1019BF2
:104040003A4A934221D13A4B9B6D394A43F00203DD
:104050009365374B9B6F364A43F002039367344BAB
:104060009B6F334B9B6B324A43F002039363304B9D
:104070009B6B2F4A23F0020393632D4B9B6B06200F
:10408000FEF7FEFC0246019B9A60019B294A93427F
:1040900021D1274B9B6D264A43F010039365244B97
:1040A0009B6F234A43F010039367214B9B6F204B78
:1040B0009B6B1F4A43F0100393631D4B9B6B1C4A81
:1040C00023F0100393631A4B9B6B0620FEF7D8FC7A
:1040D0000246019B9A60019B9A68019B5B681B6882
:1040E000B2FBF3F39BB2013BADF80E30019BDB68F2
:1040F00000221A60019B5A68019BDB6892685A6033
:10410000019BDB68BDF80E209A62019BDB680022F0
:104110001A61019B5B68DA68019BDB6822F0FF0291
:10412000DA6000BF05B05DF804FB00BF2812002074
:1041300000100240381200200000000000000000C3
:1041400082B001900091019BDB68009A013ADA622B
:10415000019BDB6801225A61019BDB6800225A62E5
:10416000019BDB6800221A61019B5B685B68002B86
:1041700007D0019BDB68DA68019BDB6842F0010233
:10418000DA60019BDB6885221A6000BF02B07047CD
:1041900082B00190019BDB6800221A60019BDB6802
:1041A00000221A61019BDB68DA68019BDB6822F060
:1041B000FF02DA6000BF02B0704700BF00000000DD
:1041C00000B585B00190019BDB681B690393019BDF
:1041D000DB68DB68DBB2039A13400393019BDB6867
:1041E000039AD2431A61039B03F00103002B13D0FF
:1041F000019B1B78042B05D1019B02221A700198A8
:10420000FFF7C6FF019B5B685B68002B04D0019B36
:104210005B685B680198984700BF05B05DF804FBD8
:1042200082B030230193019B83F3118800BF00BF4C
:1042300000BF00BF02B07047000000000000000097
:1042400082B000230193019B83F3118800BF00BF5C
:1042500000BF00BF02B07047000000000000000077
:1042600008B5FFF7DDFF00BF08BD00BF000000007C
:1042700008B5FFF7E5FF00BF08BD00BF0000000064
:1042800000B583B0019000910099019801F0E0FF22
:1042900000BF03B05DF804FB000000000000000058
:1042A00000B585B00190009100230393009B03F0BB
:1042B0000803002B03D0039B43F480730393009BFC
:1042C00003F00103002B03D0039B43F0200303936F
:1042D000009B03F00203002B03D0039B43F0400339
:1042E0000393009B03F00403002B03D0039B43F0D4
:1042F00080030393FFF7B4FF019B0433039918462F
:10430000FFF7BEFFFFF7B4FF00BF05B05DF804FB89
:1043100082B00190044B1B68034A43F0C003136052
:1043200000BF02B0704700BF004400400000000022
:1043300000B583B00F48FDF793F80E4B00930023B0
:1043400010220D490D48FCF72BFC0A4B00930C4B37
:1043500010220C490C48FCF70BFD064B0B4A5A6522
:104360000020FEF78DFB0346024A936500BF03B0B1
:104370005DF804FB48120020A8120020541200200F
:1043800011430008B81200207812002000440040B9
:1043900000B587B00190019B5B6D0493049B1B6883
:1043A0000393049BDB690593049B059A1A62059BA2
:1043B00003F00F03002B03D005990198FFF770FF5E
:1043C000059B03F48073002B1ED0FFF749FF019B70
:1043D00004334FF480611846FFF752FFFFF748FFA0
:1043E00012E0FFF73DFF049B5B6ADAB2019B93F892
:1043F0005C301340DBB219460198FDF749F8FFF72E
:1044000037FF049BDB690593059B03F02003002B1A
:10441000E7D1039B03F08003002B26D020E0FFF7B9
:104420001FFF019B30331846FCF712FD0290029BE0
:10443000002B0DDA019B043308211846FFF720FFFB
:10444000039B23F08002049B1A60FFF711FF0CE02E
:10445000029A049B9A62FFF70BFF049BDB690593AA
:10446000059B03F08003002BD9D1039B03F040038D
:10447000002B25D0059B03F04003002B20D0FFF735
:10448000EFFE019B5A6C019B9B6C9A4205D1019BEC
:104490009B6B002B01D0012300E0002303F00103FC
:1044A000DBB2002B0AD0019B043310211846FFF722
:1044B000E7FE039B23F04002049B1A60FFF7D8FE3F
:1044C00000BF07B05DF804FB000000000000000022
:1044D00082B030230193019B83F3118800BF00BF9A
:1044E00000BF00BF02B070470000000000000000E5
:1044F00082B000230193019B83F3118800BF00BFAA
:1045000000BF00BF02B070470000000000000000C4
:1045100008B5FFF7DDFF00BF08BD00BF00000000C9
:1045200008B5FFF7E5FF00BF08BD00BF00000000B1
:1045300000B583B0019000910099019801F0B8FB9B
:1045400000BF03B05DF804FB0000000000000000A5
:1045500082B00190019BDB6803F00403002B07D0BD
:10456000019B9B6A9A68019B9B6A42F080529A6009
:10457000019BDB6803F40073002B07D0019B9B6A4F
:104580001A68019B9B6A42F010021A6000BF02B0D9
:10459000704700BF000000000000000000000000A5
:1045A00082B00190019BDB6803F00803002B07D069
:1045B000019B9B6A9A68019B9B6A42F400029A6085
:1045C00000BF02B0704700BF000000000000000004
:1045D00082B00190019BDB6803F01003002B07D031
:1045E000019B9B6A1A68019B9B6A42F040021A6019
:1045F00000BF02B0704700BF0000000000000000D4
:1046000008B50748FDF704F9054B064A9A620520EC
:10461000FEF736FA0346024AD36200BF08BD00BF68
:10462000C8120020008000400000000000000000D0
:1046300084B00190019B9B6ADB69C3F30803039379
:10464000039B5B099B0003F00402039BDB09DB0077
:1046500003F008031A43039B9B091B0103F010039B
:104660001A43039B5B0103F478731A43039B1B0AF1
:104670009B0203F4806313430293029B184604B029
:10468000704700BF000000000000000000000000B4
:1046900000B587B003900291019200230593039B1C
:1046A0009B6ADB6903F02003002B03D10398FFF71B
:1046B0004FFF10E0059A019B9A420BD2039B9B6A25
:1046C000596A029B5A1C0292CAB21A70059B0133A6
:1046D0000593E4E700BF059B184607B05DF804FBAF
:1046E00000B587B003900291019200230593039BCC
:1046F0009B6ADB6903F08003002B03D10398FFF76B
:104700004FFF0FE0059A019B9A420AD2029B5A1C66
:1047100002921A78039B9B6A9A62059B0133059368
:10472000E5E700BF0398FFF753FF059B184607B066
:104730005DF804FB00000000000000000000000025
:1047400000B585B00190019B9B6A5B6A0393019B56
:104750009B6ADB6903F02003002B02D10198FFF76D
:10476000F7FE039B184605B05DF804FB000000004F
:1047700000B583B001900091019B9B6A009A9A62F8
:10478000019B9B6ADB6903F08003002B02D1019837
:10479000FFF706FF0198FFF71BFF00BF03B05DF8AE
:1047A00004FB00BF0000000000000000000000004B
:1047B00084B00390029101920023184604B0704720
:1047C00000B587B00190019B9B6A0393039B1B6814
:1047D0000593039B9B6804930198FFF729FF02460A
:1047E000019BDB6813400293029B002B00F0868044
:1047F000029B03F4BC63002B23D0039B10221A629C
:10480000049B23F0805323F001030493059B23F4BE
:1048100088730593039B5B6823F04002039B5A60F7
:10482000FFF776FE019B183301211846FFF780FE43
:10483000019B1C3301211846FFF77AFEFFF770FE3B
:1048400028E0029B03F40073002B0DD0059B23F09E
:1048500010030593FFF75CFE019B1C3300211846F3
:10486000FFF766FEFFF75CFE029B03F00403002BDC
:1048700010D0039B10221A62049B23F080530493F0
:10488000FFF746FE019B183300211846FFF750FE44
:10489000FFF746FE029B03F00803002B0DD0049B9C
:1048A00023F400030493FFF733FE019B2033002120
:1048B0001846FFF73DFEFFF733FE029B03F010039F
:1048C000002B0DD0059B23F040030593FFF720FE3E
:1048D000019B243300211846FFF72AFEFFF720FE34
:1048E000039B059A1A60039B049A9A60019B1B69BB
:1048F000002B03D0019B1B690198984700BF07B0AC
:104900005DF804FB00000000000000000000000053
:1049100082B001900091009B5A68019B5A60009BF5
:104920009A68019B9A60009BDA68019BDA60009BA1
:104930001A69019B5A61009B5A69019B1A62009B8C
:104940009A69019B5A62009B1A68019B1A6000BF1A
:1049500002B07047000000000000000000000000EE
:1049600008B51D4BDB6A1C4A43F07F03D3621A4B28
:10497000DB6A194A23F07F03D362174BDB6A164BBD
:10498000DB6C154A43F07F03D364134BDB6E124A92
:1049900043F07F03D366104BDB6E10494FF090401D
:1049A000FFF7B6FF0E490F48FFF7B2FF0E490F4859
:1049B000FFF7AEFF0E490F48FFF7AAFF0E490F4859
:1049C000FFF7A6FF0E490F48FFF7A2FF0E490F4859
:1049D000FFF79EFF00BF08BD0010024080A0000846
:1049E0009CA0000800040048B8A000080008004887
:1049F000D4A00008000C0048F0A0000800100048F7
:104A00000CA100080014004828A100080018004864
:104A100008B5FFF7A5FFFDF7ABFF00BF08BD00BF5E
:104A200000BF704700000000000000000000000010
:104A300000B58BB00190019B00221A6002AB1846B2
:104A400001F0EEF90423099302AB184601F008FACD
:104A500002AB184601F014FA099B013B0993099B2C
:104A6000002BF1D1029A019B1A6000BF0BB05DF8D8
:104A700004FB00BF00000000000000000000000078
:104A800082B000230193019B83F3118800BF00BF14
:104A900000BF02B0704700BF00000000000000002F
:104AA00008B501F025FC01F073FC01F009FE00BF20
:104AB00008BD00BF00000000000000000000000072
:104AC00000B583B0114B01221A700023019308E056
:104AD0000E4A019B9B00134400225A60019B013344
:104AE0000193019B002BF3D00948FFF7A1FFFFF7CB
:104AF000D7FF0849084800F07BFE044B02221A70D9
:104B0000FFF7BEFF00BF03B05DF804FBF812002002
:104B10000013002090A100080813002000000000EE
:104B200082B0019072B600BF00BF044A019BC2F878
:104B3000AC30034B03221A70FEE700BF08130020BD
:104B4000F81200200000000000000000000000003B
:104B500008B500F095FA00BF08BD00BF00000000D6
:104B600082B00190044B5A6B019B1343024A53637A
:104B700000BF02B0704700BF081300200000000013
:104B800082B001900091019A009B1344184602B034
:104B9000704700BF0000000000000000000000009F
:104BA00082B001900091009A019BD31A184602B07E
:104BB000704700BF0000000000000000000000007F
:104BC00082B00190019B1B68019A9A420CBF01239D
:104BD0000023DBB2184602B0704700BF000000009F
:104BE00082B001900091019B1B68009A9A420CBF11
:104BF00001230023DBB2184602B07047000000001A
:104C000084B0039002910192029B019A9A60029BE8
:104C1000039A5A60029B5B681A68029B1A60029BA7
:104C20001B68029A5A60039B029A1A6000BF04B084
:104C3000704700BF000000000000000000000000FE
:104C400084B0039002910192029B019A9A60029BA8
:104C5000039A1A60029B1B685A68029B5A60029B67
:104C60005B68029A1A60039B029A5A6000BF04B004
:104C7000704700BF000000000000000000000000BE
:104C800000B587B0039002910192039B1B680593C6
:104C900007E0059B9B68019AD31A0193059B1B684B
:104CA0000593059B9B68019A9A428CBF01230023C0
:104CB000DBB2002BEDD1019A02990598FFF7C0FFF6
:104CC000059B9A68019BD21A059B9A60039B4FF043
:104CD000FF329A6000BF07B05DF804FB00000000DF
:104CE00084B00190019B1B680393039B1A68019B8E
:104CF0001A60019B1B68019A5A60039B184604B016
:104D0000704700BF0000000000000000000000002D
:104D100082B00190019B5B68019A12681A60019B46
:104D20001B68019A52685A60019B184602B070478E
:104D300000B583B001900198FBF7CAFD00BF03B036
:104D40005DF804FB0000000000000000000000000F
:104D500008B5FBF7CDFD00BF08BD00BF0000000097
:104D600000B583B001900198FBF7CAFD00BF03B006
:104D70005DF804FB000000000000000000000000DF
:104D800008B5FBF79DFD0346184608BD000000006E
:104D900082B030230193019B83F3118800BF00BFD1
:104DA00000BF00BF02B0704700000000000000001C
:104DB00082B000230193019B83F3118800BF00BFE1
:104DC00000BF00BF02B070470000000000000000FC
:104DD00008B5FFF7D5FF0346184608BD00000000E0
:104DE00000B587B00190009102230593009A059BBE
:104DF0009A4201D2059B009300990198FFF7C0FEEB
:104E000003461846FFF7ACFFFFF7E2FF0490049952
:104E10000198FFF7C5FE0390039A009B9A4234BFA6
:104E200001230023DBB2002B07D1059B013305933F
:104E3000049B0193059B0093DEE700BF059B022BBB
:104E400002D90120FFF78CFE00BF07B05DF804FB1C
:104E500000B587B00390029101920093039B019AE1
:104E6000DA60039B0299009A1846FFF7C9FE0223F5
:104E70000593009A059B9A4201D2059B0093039BE0
:104E8000DB6800991846FFF77BFE03461846FFF7DC
:104E90004FFFFFF79DFF049004990198FFF780FEF4
:104EA0000246009B93428CBF01230023DBB2002B00
:104EB0000FD1059B0133059305990198FFF760FE1B
:104EC00003461846FFF74CFF049B0193059B009394
:104ED000DFE700BF059B022B02D90120FFF740FE50
:104EE00000BF07B05DF804FB0000000000000000F8
:104EF00000B589B0039002910192FFF769FF069017
:104F0000039B1846FFF75CFE0346002B06D0019B6F
:104F1000069A02990398FFF79BFF20E0039BDB684A
:104F200006991846FFF73CFE0590059A019B13442D
:104F30000793079A059B9A4201D2019B0793039B13
:104F40001B689B68079A9A4203D201990698FFF75B
:104F500047FF039B0299079A1846FFF791FE09B095
:104F60005DF804FB000000000000000000000000ED
:104F700000B587B00390029101920093094B05930D
:104F8000039B009A1A61039B019ADA60039B00223B
:104F90005A61029A03990598FFF7AAFF00BF07B06C
:104FA0005DF804FB18130020000000000000000062
:104FB00000B587B001902E4B0593059B019A1146D1
:104FC0001846FFF70DFE034683F00103DBB2002B0A
:104FD00014D0019B1846FFF79BFE019B1B68996844
:104FE000019B9A68019B1B680A449A60019B0022FE
:104FF0001A60059B4FF0FF329A6035E0059B18461A
:10500000FFF76EFE019B00221A60059B1846FFF712
:10501000D7FD0346002B02D0FFF79AFE24E0059B44
:105020001B689968019B9A68059B1B680A449A60F3
:10503000FFF7CEFE0490059BDB6804991846FFF746
:10504000AFFD0390059B1B689B68039A9A420AD2A6
:10505000059B1B689A68039BD31A029302990498D4
:10506000FFF7BEFE00E000BF07B05DF804FB00BF25
:1050700018130020000000000000000000000000E5
:1050800000B589B04C4B0593059B1B680493FFF753
:105090009FFE0390059BDB6803991846FFF780FD90
:1050A0000290049B9B68029A9A4266D3059BDA6839
:1050B000049B9B6819461046FFF762FD0190059B13
:1050C000019ADA60049B1846FFF722FE049B002237
:1050D0001A60059B1846FFF773FD0346002B01D0AD
:1050E000FFF736FEFFF764FE049BDB68049A126943
:1050F000114604989847FFF74BFE049B5B69002B11
:1051000014BF01230023DBB2002BBDD0FFF760FEEC
:10511000039003990198FFF743FD0290049B5B699C
:10512000029A9A4205D90220FFF71AFD002306933E
:1051300004E0049B5A69029BD31A0693059B184608
:10514000FFF73EFD0346002B06D0069B039A049909
:105150000598FFF77DFE2CE0029A069B1344079307
:10516000079A029B9A4201D2069B0793059B0499DA
:10517000079A1846FFF784FD86E700BF059B18468F
:10518000FFF71EFD0346002B12D1059BDA68029B38
:105190001A44059BDA60049B9A68029BD21A049B0E
:1051A0009A60049B9B6819460398FFF719FE00E07C
:1051B00000BF09B05DF804FB1813002000000000D8
:1051C00082B00190019B5B68019A12681A60019B92
:1051D0001B68019A52685A60019B184602B07047DA
:1051E00084B00190019B1B680393039B1A68019B89
:1051F0001A60019B1B68019A5A60039B184604B011
:10520000704700BF00000000000000000000000028
:1052100082B001900091019B1B680193019B9A68E9
:10522000009B9B689A422CBF01230023DBB2002B1A
:10523000F1D1009B019A1A60019B5A68009B5A6049
:10524000009B5B68009A1A60019B009A5A60009B61
:10525000184602B0704700BF0000000000000000C8
:1052600082B001900091019B1B680193019B9A6899
:10527000009B9B689A428CBF01230023DBB2002B6A
:10528000F1D1009B019A1A60019B5A68009B5A60F9
:10529000009B5B68009A1A60019B009A5A60009B11
:1052A000184602B0704700BF000000000000000078
:1052B00082B030230193019B83F3118800BF00BFAC
:1052C00000BF00BF02B070470000000000000000F7
:1052D00082B000230193019B83F3118800BF00BFBC
:1052E00000BF00BF02B070470000000000000000D7
:1052F00082B00190019B1B68002B14BF0123002387
:10530000DBB2184602B07047000000000000000049
:1053100082B00190019B9B685A1C019B9A6000BF60
:1053200002B0704700000000000000000000000014
:1053300000B583B00190019B002283F84C20019BB3
:105340001B6C1A46019B19461046FFF761FF034686
:10535000184603B05DF804FB0000000000000000E8
:1053600000B583B00190019B002283F84C20019B83
:105370001B6C1A46019B19461046FFF771FF034646
:10538000184603B05DF804FB0000000000000000B8
:1053900000B585B00D4B0393039BDB680293039B21
:1053A0001846FFF71DFF0190019B012283F84C2056
:1053B000039B019ADA600298FFF7BAFF0290019806
:1053C000029900DF00BF05B05DF804FB0813002060
:1053D00000B585B00D4B0393039BDB680293039BE1
:1053E0001846FFF7FDFE0190019B012283F84C2037
:1053F000039B019ADA600298FFF7B2FF02900198CE
:10540000029900DF00BF05B05DF804FB081300201F
:1054100000B585B001900091009B0393FFF748FF12
:10542000039B93F84C300C2B2ED801A252F823F09A
:105430006554000889540008895400086B5400081A
:105440007F54000875540008895400087F540008F0
:1054500089540008895400088954000889540008B8
:105460007F540008FFF734FF19E0039B1B6D0022F7
:105470001A600AE0039B1B6D1846FFF749FF039B68
:105480001846FFF79DFE00E000BF039B4FF0FF3280
:105490001A650398FFF74CFFFFF71AFF00BF05B02E
:1054A0005DF804FB000000000000000000000000A8
:1054B00000B583B001900198FFF73AFF0346184604
:1054C00003B05DF804FB00BF000000000000000016
:1054D00000B587B003468DF807300E4B0493049B4C
:1054E000DB680393039B9DF8072083F84C20049B03
:1054F0001846FFF775FE0590059B012283F84C20A6
:10550000049B059ADA600598039900DF00BF07B095
:105510005DF804FB081300200000000000000000FC
:1055200000B58BB0034600918DF80730154BDB6852
:105530000993009BB3F1FF3F16D003A8099B124AC1
:105540000099FFF715FD9DF807301846FFF7C0FFDB
:1055500003AB1846FFF7CCFE0346002B09D003AB84
:105560001846FFF725FD04E09DF807301846FFF7C1
:10557000AFFF099B1B6D00BF00BF18460BB05DF865
:1055800004FB00BF081300201154000800000000B5
:1055900000B585B001900091144B0293029BDB682B
:1055A0000393019B009A1A65019B9A68039B9B6871
:1055B0009A4294BF01230023DBB2002B03D0019851
:1055C000FFF7B6FE0DE00398FFF7CAFE0390019BBC
:1055D000012283F84C20029B019ADA60019803991A
:1055E00000DF00BF05B05DF804FB00BF081300201A
:1055F00000B583B00B4B0193019BDB680093019BCB
:105600001B689A68009B9B689A428CBF0123002309
:10561000DBB2002B01D0FFF7DBFE00BF03B05DF86B
:1056200004FB00BF08130020000000000000000081
:1056300084B00B4B0393039BDB680293039B1B68B3
:105640009B680193029B9B680093019A009B9A427E
:105650008CBF01230023DBB2184604B0704700BFA3
:1056600008130020000000000000000000000000FF
:1056700000B583B00B4B0193019BDB680093019B4A
:105680001B689A68009B9B689A422CBF01230023E9
:10569000DBB2002B01D0FFF77BFE00BF03B05DF84B
:1056A00004FB00BF08130020000000000000000001
:1056B00000B585B00C4B0393039BDB680293039BFF
:1056C0001846FFF78DFD0190019B012283F84C20C5
:1056D000039B019ADA600298FFF742FE019B18468D
:1056E00005B05DF804FB00BF0813002000000000B7
:1056F00082B00190019B00221A6000BF02B0704787
:1057000082B00190019B00221A6000BF02B0704776
:1057100082B00190019B019A1A60019B019A5A6024
:1057200000BF02B0704700BF000000000000000092
:1057300082B00190019B019A1A60019B019A5A6004
:10574000019B00229A6000BF02B070470000000079
:1057500082B00190019B019A1A60019B019A5A60E4
:10576000019B4FF0FF329A6000BF02B0704700BF4C
:1057700008B5FBF7A5F80346184608BD0000000071
:1057800008B5FFF7F5FF0346184608BD0000000006
:1057900030B583B00190019B1846FFF7D9FF019BFC
:1057A0000022DA60FFF7ECFF034600221C46154694
:1057B000019BC3E9044500BF03B030BD00000000F9
:1057C00000B583B00190019B1846FFF7A1FF00BF11
:1057D00003B05DF804FB00BF000000000000000003
:1057E00082B0019000BFFDE7000000000000000053
:1057F00000B58BB00190009100230993284A099BC2
:105800009B001344019A5A60019B099A1A63019BF9
:10581000009A9A63019801F02BF8019B1846FFF754
:1058200087FF019B28331846FFF7CAFF019B3433DB
:105830001846FFF75DFF019B10331846FFF7A8FFDE
:10584000019BAC331846FFF75BFF019B03F13C0162
:105850008023144A019800F003F90246019BDA60A4
:10586000019BDB68009A52689A64019BDB68012205
:1058700083F84C200C4B0393009BDB680493009B44
:105880001B69059301230693084B07930023089394
:1058900003AB184600F064F900BF0BB05DF804FBE1
:1058A000F8120020ACA10008A4A10008E1570008EC
:1058B00082B00190019B019A1A6000BF02B070474C
:1058C00082B00190019B1B68019A9A4214BF012388
:1058D0000023DBB2184602B0704700BF0000000092
:1058E00084B00190019B1B680393039B1A68019B82
:1058F0001A60039B184604B0704700BF0000000008
:1059000082B00190019B019A1A60019B019A5A6032
:1059100000BF02B0704700BF0000000000000000A0
:1059200082B00190019B1B68019A9A4214BF012327
:105930000023DBB2184602B0704700BF0000000031
:1059400082B001900091009B019A1A60019B5A68F5
:10595000009B5A60009B5B68009A1A60019B009A4A
:105960005A6000BF02B07047000000000000000055
:1059700084B00190019B1B680393039B1A68019BF1
:105980001A60019B1B68019A5A60039B184604B079
:10599000704700BF00000000000000000000000091
:1059A00082B00190019B5B68019A12681A60019BAA
:1059B0001B68019A52685A60019B184602B07047F2
:1059C00082B030230193019B83F3118800BF00BF95
:1059D00000BF02B0704700BF0000000000000000E0
:1059E00082B000230193019B83F3118800BF00BFA5
:1059F00000BF02B0704700BF0000000000000000C0
:105A0000014BDB68184670470813002000000000B7
:105A100000B583B0019001990820FFF781FD00BF18
:105A200003B05DF804FB00BF0000000000000000B0
:105A300000B585B001900091019B1846FFF798FFD3
:105A40000390039B009A1A650398FFF731FD00BF8E
:105A500005B05DF804FB00BF00000000000000007E
:105A600000B585B00390029101920093029B009AC9
:105A70009A60029B022283F84C20029B002283F84A
:105A80004D20029B039A1A64029B009A9A66029B1D
:105A900000225A66029B00221A66029B012283F8AA
:105AA0004E20029B019A5A64039B03F12802029B39
:105AB000383319461046FFF743FF029B543318460C
:105AC000FFF7F6FE029B58331846FFF719FF029BBB
:105AD000184605B05DF804FB00000000000000005F
